{
  "contractName": "Tokenization",
  "abi": [
    {
      "constant": false,
      "inputs": [],
      "name": "renounceOwnership",
      "outputs": [],
      "payable": false,
      "stateMutability": "nonpayable",
      "type": "function"
    },
    {
      "constant": true,
      "inputs": [],
      "name": "owner",
      "outputs": [
        {
          "name": "",
          "type": "address"
        }
      ],
      "payable": false,
      "stateMutability": "view",
      "type": "function"
    },
    {
      "constant": true,
      "inputs": [],
      "name": "isOwner",
      "outputs": [
        {
          "name": "",
          "type": "bool"
        }
      ],
      "payable": false,
      "stateMutability": "view",
      "type": "function"
    },
    {
      "constant": false,
      "inputs": [
        {
          "name": "newOwner",
          "type": "address"
        }
      ],
      "name": "transferOwnership",
      "outputs": [],
      "payable": false,
      "stateMutability": "nonpayable",
      "type": "function"
    },
    {
      "inputs": [
        {
          "name": "name",
          "type": "string"
        },
        {
          "name": "symbol",
          "type": "string"
        },
        {
          "name": "totalSupply",
          "type": "uint256"
        },
        {
          "name": "owner",
          "type": "address"
        }
      ],
      "payable": false,
      "stateMutability": "nonpayable",
      "type": "constructor"
    },
    {
      "anonymous": false,
      "inputs": [
        {
          "indexed": true,
          "name": "name",
          "type": "bytes32"
        },
        {
          "indexed": false,
          "name": "uri",
          "type": "string"
        },
        {
          "indexed": false,
          "name": "documentHash",
          "type": "bytes32"
        }
      ],
      "name": "Document",
      "type": "event"
    },
    {
      "anonymous": false,
      "inputs": [
        {
          "indexed": true,
          "name": "previousOwner",
          "type": "address"
        },
        {
          "indexed": true,
          "name": "newOwner",
          "type": "address"
        }
      ],
      "name": "OwnershipTransferred",
      "type": "event"
    },
    {
      "anonymous": false,
      "inputs": [
        {
          "indexed": true,
          "name": "from",
          "type": "address"
        },
        {
          "indexed": true,
          "name": "to",
          "type": "address"
        },
        {
          "indexed": false,
          "name": "value",
          "type": "uint256"
        }
      ],
      "name": "Transfer",
      "type": "event"
    },
    {
      "anonymous": false,
      "inputs": [
        {
          "indexed": true,
          "name": "owner",
          "type": "address"
        },
        {
          "indexed": true,
          "name": "spender",
          "type": "address"
        },
        {
          "indexed": false,
          "name": "value",
          "type": "uint256"
        }
      ],
      "name": "Approval",
      "type": "event"
    },
    {
      "constant": true,
      "inputs": [],
      "name": "name",
      "outputs": [
        {
          "name": "",
          "type": "string"
        }
      ],
      "payable": false,
      "stateMutability": "view",
      "type": "function"
    },
    {
      "constant": true,
      "inputs": [],
      "name": "symbol",
      "outputs": [
        {
          "name": "",
          "type": "string"
        }
      ],
      "payable": false,
      "stateMutability": "view",
      "type": "function"
    },
    {
      "constant": true,
      "inputs": [],
      "name": "totalSupply",
      "outputs": [
        {
          "name": "",
          "type": "uint256"
        }
      ],
      "payable": false,
      "stateMutability": "view",
      "type": "function"
    },
    {
      "constant": true,
      "inputs": [
        {
          "name": "tokenHolder",
          "type": "address"
        }
      ],
      "name": "balanceOf",
      "outputs": [
        {
          "name": "",
          "type": "uint256"
        }
      ],
      "payable": false,
      "stateMutability": "view",
      "type": "function"
    },
    {
      "constant": false,
      "inputs": [
        {
          "name": "to",
          "type": "address"
        },
        {
          "name": "value",
          "type": "uint256"
        }
      ],
      "name": "transfer",
      "outputs": [
        {
          "name": "",
          "type": "bool"
        }
      ],
      "payable": false,
      "stateMutability": "nonpayable",
      "type": "function"
    },
    {
      "constant": true,
      "inputs": [
        {
          "name": "owner",
          "type": "address"
        },
        {
          "name": "spender",
          "type": "address"
        }
      ],
      "name": "allowance",
      "outputs": [
        {
          "name": "",
          "type": "uint256"
        }
      ],
      "payable": false,
      "stateMutability": "view",
      "type": "function"
    },
    {
      "constant": false,
      "inputs": [
        {
          "name": "spender",
          "type": "address"
        },
        {
          "name": "value",
          "type": "uint256"
        }
      ],
      "name": "approve",
      "outputs": [
        {
          "name": "",
          "type": "bool"
        }
      ],
      "payable": false,
      "stateMutability": "nonpayable",
      "type": "function"
    },
    {
      "constant": false,
      "inputs": [
        {
          "name": "from",
          "type": "address"
        },
        {
          "name": "to",
          "type": "address"
        },
        {
          "name": "value",
          "type": "uint256"
        }
      ],
      "name": "transferFrom",
      "outputs": [
        {
          "name": "",
          "type": "bool"
        }
      ],
      "payable": false,
      "stateMutability": "nonpayable",
      "type": "function"
    },
    {
      "constant": true,
      "inputs": [
        {
          "name": "name",
          "type": "bytes32"
        }
      ],
      "name": "getDocument",
      "outputs": [
        {
          "name": "",
          "type": "string"
        },
        {
          "name": "",
          "type": "bytes32"
        }
      ],
      "payable": false,
      "stateMutability": "view",
      "type": "function"
    },
    {
      "constant": false,
      "inputs": [
        {
          "name": "name",
          "type": "bytes32"
        },
        {
          "name": "uri",
          "type": "string"
        },
        {
          "name": "documentHash",
          "type": "bytes32"
        }
      ],
      "name": "setDocument",
      "outputs": [],
      "payable": false,
      "stateMutability": "nonpayable",
      "type": "function"
    }
  ],
  "bytecode": "0x60806040523480156200001157600080fd5b506040516200164e3803806200164e833981810160405260808110156200003757600080fd5b8101908080516401000000008111156200005057600080fd5b820160208101848111156200006457600080fd5b81516401000000008111828201871017156200007f57600080fd5b505092919060200180516401000000008111156200009c57600080fd5b82016020810184811115620000b057600080fd5b8151640100000000811182820187101715620000cb57600080fd5b505060208201516040909201519093509091506000620000f36001600160e01b036200018816565b600080546001600160a01b0319166001600160a01b0383169081178255604051929350917f8be0079c531659141344cd1fd0a4f28419497f9722a3daafe3b4186f6b6457e0908290a3508351620001529060019060208701906200056c565b508251620001689060029060208601906200056c565b506200017e81836001600160e01b036200018d16565b505050506200060e565b335b90565b620001a1816001600160e01b036200032c16565b6200020d57604080517f08c379a000000000000000000000000000000000000000000000000000000000815260206004820152601060248201527f7472616e73666572206661696c75726500000000000000000000000000000000604482015290519081900360640190fd5b6001600160a01b0382166200028357604080517f08c379a000000000000000000000000000000000000000000000000000000000815260206004820152601060248201527f696e76616c696420726563656976657200000000000000000000000000000000604482015290519081900360640190fd5b6200029f816003546200036b60201b62000d661790919060201c565b6003556001600160a01b038216600090815260046020908152604090912054620002d491839062000d666200036b821b17901c565b6001600160a01b03831660008181526004602090815260408083209490945583518581529351929391927fddf252ad1be2c89b69c2b068fc378daa952ba7f163c4a11628f55a4df523b3ef9281900390910190a35050565b60008162000364600162000350600186620003e960201b62000e561790919060201c565b6200043360201b62000e951790919060201c565b1492915050565b600082820183811015620003e057604080517f08c379a000000000000000000000000000000000000000000000000000000000815260206004820152601b60248201527f536166654d6174683a206164646974696f6e206f766572666c6f770000000000604482015290519081900360640190fd5b90505b92915050565b6000620003e083836040518060400160405280601a81526020017f536166654d6174683a206469766973696f6e206279207a65726f000000000000815250620004ab60201b60201c565b6000826200044457506000620003e3565b828202828482816200045257fe5b0414620003e0576040517f08c379a00000000000000000000000000000000000000000000000000000000081526004018080602001828103825260218152602001806200162d6021913960400191505060405180910390fd5b6000818362000555576040517f08c379a00000000000000000000000000000000000000000000000000000000081526004018080602001828103825283818151815260200191508051906020019080838360005b8381101562000519578181015183820152602001620004ff565b50505050905090810190601f168015620005475780820380516001836020036101000a031916815260200191505b509250505060405180910390fd5b5060008385816200056257fe5b0495945050505050565b828054600181600116156101000203166002900490600052602060002090601f016020900481019282601f10620005af57805160ff1916838001178555620005df565b82800160010185558215620005df579182015b82811115620005df578251825591602001919060010190620005c2565b50620005ed929150620005f1565b5090565b6200018a91905b80821115620005ed5760008155600101620005f8565b61100f806200061e6000396000f3fe608060405234801561001057600080fd5b50600436106100ba5760003560e01c8063010648ca146100bf57806306fdde0314610136578063095ea7b3146101b357806318160ddd146101f357806323b872dd1461020d57806370a0823114610243578063715018a6146102695780638da5cb5b146102715780638f32d59b1461029557806395d89b411461029d578063a9059cbb146102a5578063b10d6b41146102d1578063dd62ed3e1461036d578063f2fde38b1461039b575b600080fd5b610134600480360360608110156100d557600080fd5b81359190810190604081016020820135600160201b8111156100f657600080fd5b82018360208201111561010857600080fd5b803590602001918460018302840111600160201b8311171561012957600080fd5b9193509150356103c1565b005b61013e6104ea565b6040805160208082528351818301528351919283929083019185019080838360005b83811015610178578181015183820152602001610160565b50505050905090810190601f1680156101a55780820380516001836020036101000a031916815260200191505b509250505060405180910390f35b6101df600480360360408110156101c957600080fd5b506001600160a01b038135169060200135610580565b604080519115158252519081900360200190f35b6101fb610636565b60408051918252519081900360200190f35b6101df6004803603606081101561022357600080fd5b506001600160a01b0381358116916020810135909116906040013561063c565b6101fb6004803603602081101561025957600080fd5b50356001600160a01b031661076e565b610134610789565b610279610808565b604080516001600160a01b039092168252519081900360200190f35b6101df610817565b61013e61083b565b6101df600480360360408110156102bb57600080fd5b506001600160a01b038135169060200135610899565b6102ee600480360360208110156102e757600080fd5b50356108b6565b6040518080602001838152602001828103825284818151815260200191508051906020019080838360005b83811015610331578181015183820152602001610319565b50505050905090810190601f16801561035e5780820380516001836020036101000a031916815260200191505b50935050505060405180910390f35b6101fb6004803603604081101561038357600080fd5b506001600160a01b03813581169160200135166109cf565b610134600480360360208110156103b157600080fd5b50356001600160a01b03166109fa565b6103c9610817565b610408576040805162461bcd60e51b81526020600482018190526024820152600080516020610f9b833981519152604482015290519081900360640190fd5b6040805160606020601f8601819004028201810183529181018481529091829190869086908190850183828082843760009201829052509385525050506020918201849052868152600682526040902082518051919261046d92849290910190610dbe565b5060208201518160010155905050837f89730c201d2df6a4cef4e892559e63e022078b0ee939d11b6ced61fb098b282484848460405180806020018381526020018281038252858582818152602001925080828437600083820152604051601f909101601f1916909201829003965090945050505050a250505050565b60018054604080516020601f600260001961010087891615020190951694909404938401819004810282018101909252828152606093909290918301828280156105755780601f1061054a57610100808354040283529160200191610575565b820191906000526020600020905b81548152906001019060200180831161055857829003601f168201915b505050505090505b90565b60006001600160a01b0383166105ce576040805162461bcd60e51b815260206004820152600e60248201526d34b73b30b634b21039b2b73232b960911b604482015290519081900360640190fd5b3360008181526005602090815260408083206001600160a01b03881680855290835292819020869055805186815290519293927f8c5be1e5ebec7d5bd14f71427d1e84f3dd0314c0f7b2291e5b200ac8c7c3b925929181900390910190a35060015b92915050565b60035490565b6001600160a01b03831660009081526005602090815260408083203384529091528120548211156106ad576040805162461bcd60e51b8152602060048201526016602482015275696e73756666696369656e7420616c6c6f77616e636560501b604482015290519081900360640190fd5b6001600160a01b03841660009081526005602090815260408083203384529091529020548211610734576001600160a01b038416600090815260056020908152604080832033845290915290205461070b908363ffffffff610a4d16565b6001600160a01b0385166000908152600560209081526040808320338452909152902055610759565b6001600160a01b03841660009081526005602090815260408083203384529091528120555b610764848484610a96565b5060019392505050565b6001600160a01b031660009081526004602052604090205490565b610791610817565b6107d0576040805162461bcd60e51b81526020600482018190526024820152600080516020610f9b833981519152604482015290519081900360640190fd5b600080546040516001600160a01b0390911690600080516020610fbb833981519152908390a3600080546001600160a01b0319169055565b6000546001600160a01b031690565b600080546001600160a01b031661082c610c3d565b6001600160a01b031614905090565b60028054604080516020601f60001961010060018716150201909416859004938401819004810282018101909252828152606093909290918301828280156105755780601f1061054a57610100808354040283529160200191610575565b60006108ad6108a6610c3d565b8484610a96565b50600192915050565b6000818152600660205260408120546060919060026000196101006001841615020190911604610922576040805162461bcd60e51b8152602060048201526012602482015271111bd8dd5b595b9d081b9bdd08199bdd5b9960721b604482015290519081900360640190fd5b60008381526006602090815260409182902060018082015482548551600293821615610100026000190190911692909204601f810185900485028301850190955284825291939192909184918301828280156109bf5780601f10610994576101008083540402835291602001916109bf565b820191906000526020600020905b8154815290600101906020018083116109a257829003601f168201915b5050505050915091509150915091565b6001600160a01b03918216600090815260056020908152604080832093909416825291909152205490565b610a02610817565b610a41576040805162461bcd60e51b81526020600482018190526024820152600080516020610f9b833981519152604482015290519081900360640190fd5b610a4a81610c41565b50565b6000610a8f83836040518060400160405280601e81526020017f536166654d6174683a207375627472616374696f6e206f766572666c6f770000815250610ccf565b9392505050565b6001600160a01b038316610af1576040805162461bcd60e51b815260206004820152601e60248201527f7472616e736665722066726f6d20746865207a65726f20616464726573730000604482015290519081900360640190fd5b6001600160a01b038216610b4b576040805162461bcd60e51b815260206004820152601c60248201527b7472616e7366657220746f20746865207a65726f206164647265737360201b604482015290519081900360640190fd5b604080518082018252601f81527f7472616e7366657220616d6f756e7420657863656564732062616c616e6365006020808301919091526001600160a01b038616600090815260049091529190912054610bac91839063ffffffff610ccf16565b6001600160a01b038085166000908152600460205260408082209390935590841681522054610be1908263ffffffff610d6616565b6001600160a01b0380841660008181526004602090815260409182902094909455805185815290519193928716927fddf252ad1be2c89b69c2b068fc378daa952ba7f163c4a11628f55a4df523b3ef92918290030190a3505050565b3390565b6001600160a01b038116610c865760405162461bcd60e51b8152600401808060200182810382526026815260200180610f546026913960400191505060405180910390fd5b600080546040516001600160a01b0380851693921691600080516020610fbb83398151915291a3600080546001600160a01b0319166001600160a01b0392909216919091179055565b60008184841115610d5e5760405162461bcd60e51b81526004018080602001828103825283818151815260200191508051906020019080838360005b83811015610d23578181015183820152602001610d0b565b50505050905090810190601f168015610d505780820380516001836020036101000a031916815260200191505b509250505060405180910390fd5b505050900390565b600082820183811015610a8f576040805162461bcd60e51b815260206004820152601b60248201527a536166654d6174683a206164646974696f6e206f766572666c6f7760281b604482015290519081900360640190fd5b828054600181600116156101000203166002900490600052602060002090601f016020900481019282601f10610dff57805160ff1916838001178555610e2c565b82800160010185558215610e2c579182015b82811115610e2c578251825591602001919060010190610e11565b50610e38929150610e3c565b5090565b61057d91905b80821115610e385760008155600101610e42565b6000610a8f83836040518060400160405280601a815260200179536166654d6174683a206469766973696f6e206279207a65726f60301b815250610eee565b600082610ea457506000610630565b82820282848281610eb157fe5b0414610a8f5760405162461bcd60e51b8152600401808060200182810382526021815260200180610f7a6021913960400191505060405180910390fd5b60008183610f3d5760405162461bcd60e51b8152602060048201818152835160248401528351909283926044909101919085019080838360008315610d23578181015183820152602001610d0b565b506000838581610f4957fe5b049594505050505056fe4f776e61626c653a206e6577206f776e657220697320746865207a65726f2061646472657373536166654d6174683a206d756c7469706c69636174696f6e206f766572666c6f774f776e61626c653a2063616c6c6572206973206e6f7420746865206f776e65728be0079c531659141344cd1fd0a4f28419497f9722a3daafe3b4186f6b6457e0a265627a7a72305820275d0a628bbd6e2ff91b788a9d47a8b21881b8342c1868928578416b9103592564736f6c634300050a0032536166654d6174683a206d756c7469706c69636174696f6e206f766572666c6f77",
  "source": "pragma solidity ^0.5.0;\n\nimport \"openzeppelin-solidity/contracts/math/SafeMath.sol\";\nimport \"openzeppelin-solidity/contracts/ownership/Ownable.sol\";\nimport \"openzeppelin-solidity/contracts/token/ERC20/IERC20.sol\";\nimport \"openzeppelin-solidity/contracts/utils/Address.sol\";\n\ncontract Tokenization is IERC20, Ownable {\n    using SafeMath for uint256;\n    using Address for address;\n\n  string internal _name;\n  string internal _symbol;\n  uint256 internal _totalSupply;\n\n  // Mapping from tokenHolder to balance.\n  mapping(address => uint256) internal _balances;\n\n  // Mapping from (tokenHolder, spender) to allowed value.\n  mapping (address => mapping (address => uint256)) internal _allowed;\n\n    struct Doc {\n    string docURI;\n    bytes32 docHash;\n  }\n  // Mapping for token URIs.\n  mapping(bytes32 => Doc) internal _documents;\n\n    // Mapping from (operator, tokenHolder) to authorized status. [TOKEN-HOLDER-SPECIFIC]\n  mapping(address => mapping(address => bool)) internal _authorizedOperator;\n\n    constructor(\n    string memory name,\n    string memory symbol,\n    uint256 totalSupply,\n    address owner\n  )\n    public\n  {\n   _name = name;\n   _symbol = symbol;\n   _issue(owner,totalSupply);\n  }\n    /**\n   * @dev Get the name of the token, e.g., \"MyToken\".\n   * @return Name of the token.\n   */\n  function name() external view returns(string memory) {\n    return _name;\n  }\n  /**\n   * @dev Get the symbol of the token, e.g., \"MYT\".\n   * @return Symbol of the token.\n   */\n  function symbol() external view returns(string memory) {\n    return _symbol;\n  }\n\n    /**\n   * @dev Get the total number of issued tokens.\n   * @return Total supply of tokens currently in circulation.\n   */\n  function totalSupply() external view   returns (uint256) {\n    return _totalSupply;\n  }\n  /**\n   * @dev Get the balance of the account with address 'tokenHolder'.\n   * @param tokenHolder Address for which the balance is returned.\n   * @return Amount of token held by 'tokenHolder' in the token contract.\n   */\n  function balanceOf(address tokenHolder) external view   returns (uint256) {\n    return _balances[tokenHolder];\n  }\n  /**\n   * @dev Transfer token for a specified address.\n   * @param to The address to transfer to.\n   * @param value The value to be transferred.\n   * @return A boolean that indicates if the operation was successful.\n   */\n  function transfer(address to, uint256 value) external   returns (bool) {\n     _transfer(_msgSender(), to, value);\n    return true;\n  }\n  /**\n   * @dev Check the value of tokens that an owner allowed to a spender.\n   * @param owner address The address which owns the funds.\n   * @param spender address The address which will spend the funds.\n   * @return A uint256 specifying the value of tokens still available for the spender.\n   */\n  function allowance(address owner, address spender) external view   returns (uint256) {\n    return _allowed[owner][spender];\n  }\n  /**\n   * @dev Approve the passed address to spend the specified amount of tokens on behalf of 'msg.sender'.\n   * @param spender The address which will spend the funds.\n   * @param value The amount of tokens to be spent.\n   * @return A boolean that indicates if the operation was successful.\n   */\n  function approve(address spender, uint256 value) external   returns (bool) {\n    require(spender != address(0), \"invalid sender\"); \n    _allowed[msg.sender][spender] = value;\n    emit Approval(msg.sender, spender, value);\n    return true;\n  }\n  /**\n   * @dev Transfer tokens from one address to another.\n   * @param from The address which you want to transfer tokens from.\n   * @param to The address which you want to transfer to.\n   * @param value The amount of tokens to be transferred.\n   * @return A boolean that indicates if the operation was successful.\n   */\n  function transferFrom(address from, address to, uint256 value) external   returns (bool) {\n    require( (value <= _allowed[from][msg.sender]), \"insufficient allowance\"); \n\n    if(_allowed[from][msg.sender] >= value) {\n      _allowed[from][msg.sender] = _allowed[from][msg.sender].sub(value);\n    } else {\n      _allowed[from][msg.sender] = 0;\n    }\n\n    _transfer(from, to, value);\n    return true;\n  }\n\n    /**\n   * @dev Access a document associated with the token.\n   * @param name Short name (represented as a bytes32) associated to the document.\n   * @return Requested document + document hash.\n   */\n  function getDocument(bytes32 name) external view returns (string memory, bytes32) {\n    require(bytes(_documents[name].docURI).length != 0, \"Document not found\"); \n    return (\n      _documents[name].docURI,\n      _documents[name].docHash\n    );\n  }\n  /**\n   * @dev Associate a document with the token.\n   * @param name Short name (represented as a bytes32) associated to the document.\n   * @param uri Document content.\n   * @param documentHash Hash of the document [optional parameter].\n   */\n  function setDocument(bytes32 name, string calldata uri, bytes32 documentHash) external onlyOwner {\n   // require(_isController[msg.sender]);\n    _documents[name] = Doc({\n      docURI: uri,\n      docHash: documentHash\n    });\n    emit Document(name, uri, documentHash);\n  }\n\n    /**\n   * @dev Perform the issuance of tokens.\n   * @param to Token recipient.\n   * @param value Number of tokens issued.\n   */\n  function _issue(address to, uint256 value)\n    internal\n  {\n    require(_isMultiple(value), \"transfer failure\"); // 0x50\ttransfer failure\n    require(to != address(0), \"invalid receiver\"); // 0x57\tinvalid receiver\n\n    _totalSupply = _totalSupply.add(value);\n    _balances[to] = _balances[to].add(value);\n\n  //  emit Issued(operator, to, value, data);\n    emit Transfer(address(0), to, value); // ERC20 retrocompatibility\n  }\n\n    /**\n   * @dev Check if 'value' is multiple of the granularity.\n   * @param value The quantity that want's to be checked.\n   * @return 'true' if 'value' is a multiple of the granularity.\n   */\n  function _isMultiple(uint256 value) internal view returns(bool) {\n    return(value.div(1).mul(1) == value);\n  }\n      /**\n     * @dev Moves tokens `amount` from `sender` to `recipient`.\n     *\n     * This is internal function is equivalent to {transfer}, and can be used to\n     * e.g. implement automatic token fees, slashing mechanisms, etc.\n     *\n     * Emits a {Transfer} event.\n     *\n     * Requirements:\n     *\n     * - `sender` cannot be the zero address.\n     * - `recipient` cannot be the zero address.\n     * - `sender` must have a balance of at least `amount`.\n     */\n    function _transfer(address sender, address recipient, uint256 amount) internal  {\n        require(sender != address(0), \"transfer from the zero address\");\n        require(recipient != address(0), \"transfer to the zero address\");\n\n       // _beforeTokenTransfer(sender, recipient, amount);\n\n        _balances[sender] = _balances[sender].sub(amount, \"transfer amount exceeds balance\");\n        _balances[recipient] = _balances[recipient].add(amount);\n        emit Transfer(sender, recipient, amount);\n    }\n\n\n  event Document(bytes32 indexed name, string uri, bytes32 documentHash);\n}",
  "sourcePath": "/home/malik/STO-tokenization/UpgradeableSmartContract-proxy/contracts/Tokenization.sol",
  "compiler": {
    "name": "solc",
    "version": "0.5.10+commit.5a6ea5b1.Emscripten.clang"
  },
  "schemaVersion": "3.0.23",
  "updatedAt": "2020-05-22T16:04:07.372Z",
  "devdoc": {
    "methods": {
      "allowance(address,address)": {
        "details": "Check the value of tokens that an owner allowed to a spender.",
        "params": {
          "owner": "address The address which owns the funds.",
          "spender": "address The address which will spend the funds."
        },
        "return": "A uint256 specifying the value of tokens still available for the spender."
      },
      "approve(address,uint256)": {
        "details": "Approve the passed address to spend the specified amount of tokens on behalf of 'msg.sender'.",
        "params": {
          "spender": "The address which will spend the funds.",
          "value": "The amount of tokens to be spent."
        },
        "return": "A boolean that indicates if the operation was successful."
      },
      "balanceOf(address)": {
        "details": "Get the balance of the account with address 'tokenHolder'.",
        "params": {
          "tokenHolder": "Address for which the balance is returned."
        },
        "return": "Amount of token held by 'tokenHolder' in the token contract."
      },
      "getDocument(bytes32)": {
        "details": "Access a document associated with the token.",
        "params": {
          "name": "Short name (represented as a bytes32) associated to the document."
        },
        "return": "Requested document + document hash."
      },
      "isOwner()": {
        "details": "Returns true if the caller is the current owner."
      },
      "name()": {
        "details": "Get the name of the token, e.g., \"MyToken\".",
        "return": "Name of the token."
      },
      "owner()": {
        "details": "Returns the address of the current owner."
      },
      "renounceOwnership()": {
        "details": "Leaves the contract without owner. It will not be possible to call `onlyOwner` functions anymore. Can only be called by the current owner.     * NOTE: Renouncing ownership will leave the contract without an owner, thereby removing any functionality that is only available to the owner."
      },
      "setDocument(bytes32,string,bytes32)": {
        "details": "Associate a document with the token.",
        "params": {
          "documentHash": "Hash of the document [optional parameter].",
          "name": "Short name (represented as a bytes32) associated to the document.",
          "uri": "Document content."
        }
      },
      "symbol()": {
        "details": "Get the symbol of the token, e.g., \"MYT\".",
        "return": "Symbol of the token."
      },
      "totalSupply()": {
        "details": "Get the total number of issued tokens.",
        "return": "Total supply of tokens currently in circulation."
      },
      "transfer(address,uint256)": {
        "details": "Transfer token for a specified address.",
        "params": {
          "to": "The address to transfer to.",
          "value": "The value to be transferred."
        },
        "return": "A boolean that indicates if the operation was successful."
      },
      "transferFrom(address,address,uint256)": {
        "details": "Transfer tokens from one address to another.",
        "params": {
          "from": "The address which you want to transfer tokens from.",
          "to": "The address which you want to transfer to.",
          "value": "The amount of tokens to be transferred."
        },
        "return": "A boolean that indicates if the operation was successful."
      },
      "transferOwnership(address)": {
        "details": "Transfers ownership of the contract to a new account (`newOwner`). Can only be called by the current owner."
      }
    }
  },
  "userdoc": {
    "methods": {}
  }
}