{
  "contractName": "System",
  "abi": [
    {
      "constant": true,
      "inputs": [
        {
          "name": "",
          "type": "string"
        }
      ],
      "name": "tokens",
      "outputs": [
        {
          "name": "",
          "type": "address"
        }
      ],
      "payable": false,
      "stateMutability": "view",
      "type": "function"
    },
    {
      "constant": false,
      "inputs": [],
      "name": "renounceOwnership",
      "outputs": [],
      "payable": false,
      "stateMutability": "nonpayable",
      "type": "function"
    },
    {
      "constant": true,
      "inputs": [],
      "name": "owner",
      "outputs": [
        {
          "name": "",
          "type": "address"
        }
      ],
      "payable": false,
      "stateMutability": "view",
      "type": "function"
    },
    {
      "constant": true,
      "inputs": [],
      "name": "isOwner",
      "outputs": [
        {
          "name": "",
          "type": "bool"
        }
      ],
      "payable": false,
      "stateMutability": "view",
      "type": "function"
    },
    {
      "constant": true,
      "inputs": [],
      "name": "_tokenization",
      "outputs": [
        {
          "name": "",
          "type": "address"
        }
      ],
      "payable": false,
      "stateMutability": "view",
      "type": "function"
    },
    {
      "constant": false,
      "inputs": [
        {
          "name": "newOwner",
          "type": "address"
        }
      ],
      "name": "transferOwnership",
      "outputs": [],
      "payable": false,
      "stateMutability": "nonpayable",
      "type": "function"
    },
    {
      "anonymous": false,
      "inputs": [
        {
          "indexed": false,
          "name": "symbol",
          "type": "string"
        },
        {
          "indexed": true,
          "name": "owner",
          "type": "address"
        },
        {
          "indexed": true,
          "name": "amount",
          "type": "uint256"
        },
        {
          "indexed": false,
          "name": "contractAddress",
          "type": "address"
        }
      ],
      "name": "Tokenization",
      "type": "event"
    },
    {
      "anonymous": false,
      "inputs": [
        {
          "indexed": true,
          "name": "name",
          "type": "bytes32"
        },
        {
          "indexed": false,
          "name": "uri",
          "type": "string"
        },
        {
          "indexed": false,
          "name": "documentHash",
          "type": "bytes32"
        }
      ],
      "name": "Document",
      "type": "event"
    },
    {
      "anonymous": false,
      "inputs": [
        {
          "indexed": true,
          "name": "previousOwner",
          "type": "address"
        },
        {
          "indexed": true,
          "name": "newOwner",
          "type": "address"
        }
      ],
      "name": "OwnershipTransferred",
      "type": "event"
    },
    {
      "constant": false,
      "inputs": [
        {
          "name": "name",
          "type": "string"
        },
        {
          "name": "symbol",
          "type": "string"
        },
        {
          "name": "supply",
          "type": "uint256"
        },
        {
          "name": "owner",
          "type": "address"
        }
      ],
      "name": "createToken",
      "outputs": [
        {
          "name": "",
          "type": "bool"
        }
      ],
      "payable": false,
      "stateMutability": "nonpayable",
      "type": "function"
    },
    {
      "constant": false,
      "inputs": [
        {
          "name": "name",
          "type": "bytes32"
        },
        {
          "name": "uri",
          "type": "string"
        },
        {
          "name": "documentHash",
          "type": "bytes32"
        },
        {
          "name": "tokenSymbol",
          "type": "string"
        }
      ],
      "name": "setDocument",
      "outputs": [
        {
          "name": "",
          "type": "bool"
        }
      ],
      "payable": false,
      "stateMutability": "nonpayable",
      "type": "function"
    },
    {
      "constant": true,
      "inputs": [
        {
          "name": "tokenSymbol",
          "type": "string"
        }
      ],
      "name": "getTokenContract",
      "outputs": [
        {
          "name": "",
          "type": "address"
        }
      ],
      "payable": false,
      "stateMutability": "view",
      "type": "function"
    }
  ],
  "bytecode": "0x608060405260006100176001600160e01b0361006616565b600080546001600160a01b0319166001600160a01b0383169081178255604051929350917f8be0079c531659141344cd1fd0a4f28419497f9722a3daafe3b4186f6b6457e0908290a35061006a565b3390565b612106806100796000396000f3fe60806040523480156200001157600080fd5b50600436106200008e5760003560e01c806304c2320b146200009357806334f359f91462000159578063381c4fce1462000243578063715018a614620002b75780638da5cb5b14620002c35780638f32d59b14620002cd578063a2aebf5b14620002d7578063c547f4a214620003a9578063f2fde38b14620003b3575b600080fd5b6200013d60048036036020811015620000ab57600080fd5b810190602081018135600160201b811115620000c657600080fd5b820183602082011115620000d957600080fd5b803590602001918460018302840111600160201b83111715620000fb57600080fd5b91908080601f016020809104026020016040519081016040528093929190818152602001838380828437600092019190915250929550620003dc945050505050565b604080516001600160a01b039092168252519081900360200190f35b6200022f600480360360808110156200017157600080fd5b810190602081018135600160201b8111156200018c57600080fd5b8201836020820111156200019f57600080fd5b803590602001918460018302840111600160201b83111715620001c157600080fd5b919390929091602081019035600160201b811115620001df57600080fd5b820183602082011115620001f257600080fd5b803590602001918460018302840111600160201b831117156200021457600080fd5b9193509150803590602001356001600160a01b031662000402565b604080519115158252519081900360200190f35b6200013d600480360360208110156200025b57600080fd5b810190602081018135600160201b8111156200027657600080fd5b8201836020820111156200028957600080fd5b803590602001918460018302840111600160201b83111715620002ab57600080fd5b50909250905062000661565b620002c16200069b565b005b6200013d6200071f565b6200022f6200072e565b6200022f60048036036080811015620002ef57600080fd5b81359190810190604081016020820135600160201b8111156200031157600080fd5b8201836020820111156200032457600080fd5b803590602001918460018302840111600160201b831117156200034657600080fd5b91939092823592604081019060200135600160201b8111156200036857600080fd5b8201836020820111156200037b57600080fd5b803590602001918460018302840111600160201b831117156200039d57600080fd5b50909250905062000754565b6200013d6200097b565b620002c160048036036020811015620003cb57600080fd5b50356001600160a01b03166200098a565b80516020818301810180516001825292820191909301209152546001600160a01b031681565b60006200040e6200072e565b6200044f576040805162461bcd60e51b8152602060048201819052602482015260008051602062002092833981519152604482015290519081900360640190fd5b60006001600160a01b0316600186866040518083838082843791909101948552505060405192839003602001909220546001600160a01b0316929092149150620004e09050576040805162461bcd60e51b815260206004820152601b60248201527a546f6b656e2053796d626f6c20616c72656164792065786973747360281b604482015290519081900360640190fd5b868686868686604051620004f49062000a78565b604081018390526001600160a01b038216606082015260808082528101869052806020810160a08201898980828437600083820152601f01601f1916909101848103835287815260200190508787808284376000838201819052604051601f909201601f19169093018190039b50995090975050505050505050f08015801562000582573d6000803e3d6000fd5b50600280546001600160a01b0319166001600160a01b0392831617908190556040519116906001908790879080838380828437919091019485525050604080516020948190038501812080546001600160a01b0319166001600160a01b03978816179055600254861694810185905281815290810189905287948716937f9083652920b837aef3896fb6d8283a43ca3926492b53c3008f11afbebb65d30d93508a925089918060608101858580828437600083820152604051601f909101601f1916909201829003965090945050505050a35060019695505050505050565b6000600183836040518083838082843791909101948552505060405192839003602001909220546001600160a01b03169250505092915050565b620006a56200072e565b620006e6576040805162461bcd60e51b8152602060048201819052602482015260008051602062002092833981519152604482015290519081900360640190fd5b600080546040516001600160a01b0390911690600080516020620020b2833981519152908390a3600080546001600160a01b0319169055565b6000546001600160a01b031690565b600080546001600160a01b031662000745620009e3565b6001600160a01b031614905090565b6000620007606200072e565b620007a1576040805162461bcd60e51b8152602060048201819052602482015260008051602062002092833981519152604482015290519081900360640190fd5b60006001600160a01b0316600184846040518083838082843791909101948552505060405192839003602001909220546001600160a01b0316929092141591506200082c9050576040805162461bcd60e51b8152602060048201526014602482015273546f6b656e20646f65736e27742065786973747360601b604482015290519081900360640190fd5b600183836040518083838082843791909101948552505060405192839003602001832054600280546001600160a01b0319166001600160a01b0392831617908190556283246560e11b8552600485018c8152604486018a9052606060248701908152606487018c9052919092169463010648ca94508c93508b928b928b92608401858580828437600081840152601f19601f82011690508083019250505095505050505050600060405180830381600087803b158015620008ec57600080fd5b505af115801562000901573d6000803e3d6000fd5b50505050867f89730c201d2df6a4cef4e892559e63e022078b0ee939d11b6ced61fb098b282487878760405180806020018381526020018281038252858582818152602001925080828437600083820152604051601f909101601f1916909201829003965090945050505050a25060019695505050505050565b6002546001600160a01b031681565b620009946200072e565b620009d5576040805162461bcd60e51b8152602060048201819052602482015260008051602062002092833981519152604482015290519081900360640190fd5b620009e081620009e7565b50565b3390565b6001600160a01b03811662000a2e5760405162461bcd60e51b81526004018080602001828103825260268152602001806200206c6026913960400191505060405180910390fd5b600080546040516001600160a01b0380851693921691600080516020620020b283398151915291a3600080546001600160a01b0319166001600160a01b0392909216919091179055565b6115e58062000a878339019056fe60806040523480156200001157600080fd5b50604051620015e5380380620015e5833981810160405260808110156200003757600080fd5b8101908080516401000000008111156200005057600080fd5b820160208101848111156200006457600080fd5b81516401000000008111828201871017156200007f57600080fd5b505092919060200180516401000000008111156200009c57600080fd5b82016020810184811115620000b057600080fd5b8151640100000000811182820187101715620000cb57600080fd5b505060208201516040909201519093509091506000620000f36001600160e01b036200018816565b600080546001600160a01b0319166001600160a01b0383169081178255604051929350917f8be0079c531659141344cd1fd0a4f28419497f9722a3daafe3b4186f6b6457e0908290a3508351620001529060019060208701906200056c565b508251620001689060029060208601906200056c565b506200017e81836001600160e01b036200018d16565b505050506200060e565b335b90565b620001a1816001600160e01b036200032c16565b6200020d57604080517f08c379a000000000000000000000000000000000000000000000000000000000815260206004820152601060248201527f7472616e73666572206661696c75726500000000000000000000000000000000604482015290519081900360640190fd5b6001600160a01b0382166200028357604080517f08c379a000000000000000000000000000000000000000000000000000000000815260206004820152601060248201527f696e76616c696420726563656976657200000000000000000000000000000000604482015290519081900360640190fd5b6200029f816003546200036b60201b62000cfd1790919060201c565b6003556001600160a01b038216600090815260046020908152604090912054620002d491839062000cfd6200036b821b17901c565b6001600160a01b03831660008181526004602090815260408083209490945583518581529351929391927fddf252ad1be2c89b69c2b068fc378daa952ba7f163c4a11628f55a4df523b3ef9281900390910190a35050565b60008162000364600162000350600186620003e960201b62000ded1790919060201c565b6200043360201b62000e2c1790919060201c565b1492915050565b600082820183811015620003e057604080517f08c379a000000000000000000000000000000000000000000000000000000000815260206004820152601b60248201527f536166654d6174683a206164646974696f6e206f766572666c6f770000000000604482015290519081900360640190fd5b90505b92915050565b6000620003e083836040518060400160405280601a81526020017f536166654d6174683a206469766973696f6e206279207a65726f000000000000815250620004ab60201b60201c565b6000826200044457506000620003e3565b828202828482816200045257fe5b0414620003e0576040517f08c379a0000000000000000000000000000000000000000000000000000000008152600401808060200182810382526021815260200180620015c46021913960400191505060405180910390fd5b6000818362000555576040517f08c379a00000000000000000000000000000000000000000000000000000000081526004018080602001828103825283818151815260200191508051906020019080838360005b8381101562000519578181015183820152602001620004ff565b50505050905090810190601f168015620005475780820380516001836020036101000a031916815260200191505b509250505060405180910390fd5b5060008385816200056257fe5b0495945050505050565b828054600181600116156101000203166002900490600052602060002090601f016020900481019282601f10620005af57805160ff1916838001178555620005df565b82800160010185558215620005df579182015b82811115620005df578251825591602001919060010190620005c2565b50620005ed929150620005f1565b5090565b6200018a91905b80821115620005ed5760008155600101620005f8565b610fa6806200061e6000396000f3fe608060405234801561001057600080fd5b50600436106100ba5760003560e01c8063010648ca146100bf57806306fdde0314610136578063095ea7b3146101b357806318160ddd146101f357806323b872dd1461020d57806370a0823114610243578063715018a6146102695780638da5cb5b146102715780638f32d59b1461029557806395d89b411461029d578063a9059cbb146102a5578063b10d6b41146102d1578063dd62ed3e1461036d578063f2fde38b1461039b575b600080fd5b610134600480360360608110156100d557600080fd5b81359190810190604081016020820135600160201b8111156100f657600080fd5b82018360208201111561010857600080fd5b803590602001918460018302840111600160201b8311171561012957600080fd5b9193509150356103c1565b005b61013e610481565b6040805160208082528351818301528351919283929083019185019080838360005b83811015610178578181015183820152602001610160565b50505050905090810190601f1680156101a55780820380516001836020036101000a031916815260200191505b509250505060405180910390f35b6101df600480360360408110156101c957600080fd5b506001600160a01b038135169060200135610517565b604080519115158252519081900360200190f35b6101fb6105cd565b60408051918252519081900360200190f35b6101df6004803603606081101561022357600080fd5b506001600160a01b038135811691602081013590911690604001356105d3565b6101fb6004803603602081101561025957600080fd5b50356001600160a01b0316610705565b610134610720565b61027961079f565b604080516001600160a01b039092168252519081900360200190f35b6101df6107ae565b61013e6107d2565b6101df600480360360408110156102bb57600080fd5b506001600160a01b038135169060200135610830565b6102ee600480360360208110156102e757600080fd5b503561084d565b6040518080602001838152602001828103825284818151815260200191508051906020019080838360005b83811015610331578181015183820152602001610319565b50505050905090810190601f16801561035e5780820380516001836020036101000a031916815260200191505b50935050505060405180910390f35b6101fb6004803603604081101561038357600080fd5b506001600160a01b0381358116916020013516610966565b610134600480360360208110156103b157600080fd5b50356001600160a01b0316610991565b6103c96107ae565b610408576040805162461bcd60e51b81526020600482018190526024820152600080516020610f32833981519152604482015290519081900360640190fd5b6040805160606020601f8601819004028201810183529181018481529091829190869086908190850183828082843760009201829052509385525050506020918201849052868152600682526040902082518051919261046d92849290910190610d55565b506020820151816001015590505050505050565b60018054604080516020601f6002600019610100878916150201909516949094049384018190048102820181019092528281526060939092909183018282801561050c5780601f106104e15761010080835404028352916020019161050c565b820191906000526020600020905b8154815290600101906020018083116104ef57829003601f168201915b505050505090505b90565b60006001600160a01b038316610565576040805162461bcd60e51b815260206004820152600e60248201526d34b73b30b634b21039b2b73232b960911b604482015290519081900360640190fd5b3360008181526005602090815260408083206001600160a01b03881680855290835292819020869055805186815290519293927f8c5be1e5ebec7d5bd14f71427d1e84f3dd0314c0f7b2291e5b200ac8c7c3b925929181900390910190a35060015b92915050565b60035490565b6001600160a01b0383166000908152600560209081526040808320338452909152812054821115610644576040805162461bcd60e51b8152602060048201526016602482015275696e73756666696369656e7420616c6c6f77616e636560501b604482015290519081900360640190fd5b6001600160a01b038416600090815260056020908152604080832033845290915290205482116106cb576001600160a01b03841660009081526005602090815260408083203384529091529020546106a2908363ffffffff6109e416565b6001600160a01b03851660009081526005602090815260408083203384529091529020556106f0565b6001600160a01b03841660009081526005602090815260408083203384529091528120555b6106fb848484610a2d565b5060019392505050565b6001600160a01b031660009081526004602052604090205490565b6107286107ae565b610767576040805162461bcd60e51b81526020600482018190526024820152600080516020610f32833981519152604482015290519081900360640190fd5b600080546040516001600160a01b0390911690600080516020610f52833981519152908390a3600080546001600160a01b0319169055565b6000546001600160a01b031690565b600080546001600160a01b03166107c3610bd4565b6001600160a01b031614905090565b60028054604080516020601f600019610100600187161502019094168590049384018190048102820181019092528281526060939092909183018282801561050c5780601f106104e15761010080835404028352916020019161050c565b600061084461083d610bd4565b8484610a2d565b50600192915050565b60008181526006602052604081205460609190600260001961010060018416150201909116046108b9576040805162461bcd60e51b8152602060048201526012602482015271111bd8dd5b595b9d081b9bdd08199bdd5b9960721b604482015290519081900360640190fd5b60008381526006602090815260409182902060018082015482548551600293821615610100026000190190911692909204601f810185900485028301850190955284825291939192909184918301828280156109565780601f1061092b57610100808354040283529160200191610956565b820191906000526020600020905b81548152906001019060200180831161093957829003601f168201915b5050505050915091509150915091565b6001600160a01b03918216600090815260056020908152604080832093909416825291909152205490565b6109996107ae565b6109d8576040805162461bcd60e51b81526020600482018190526024820152600080516020610f32833981519152604482015290519081900360640190fd5b6109e181610bd8565b50565b6000610a2683836040518060400160405280601e81526020017f536166654d6174683a207375627472616374696f6e206f766572666c6f770000815250610c66565b9392505050565b6001600160a01b038316610a88576040805162461bcd60e51b815260206004820152601e60248201527f7472616e736665722066726f6d20746865207a65726f20616464726573730000604482015290519081900360640190fd5b6001600160a01b038216610ae2576040805162461bcd60e51b815260206004820152601c60248201527b7472616e7366657220746f20746865207a65726f206164647265737360201b604482015290519081900360640190fd5b604080518082018252601f81527f7472616e7366657220616d6f756e7420657863656564732062616c616e6365006020808301919091526001600160a01b038616600090815260049091529190912054610b4391839063ffffffff610c6616565b6001600160a01b038085166000908152600460205260408082209390935590841681522054610b78908263ffffffff610cfd16565b6001600160a01b0380841660008181526004602090815260409182902094909455805185815290519193928716927fddf252ad1be2c89b69c2b068fc378daa952ba7f163c4a11628f55a4df523b3ef92918290030190a3505050565b3390565b6001600160a01b038116610c1d5760405162461bcd60e51b8152600401808060200182810382526026815260200180610eeb6026913960400191505060405180910390fd5b600080546040516001600160a01b0380851693921691600080516020610f5283398151915291a3600080546001600160a01b0319166001600160a01b0392909216919091179055565b60008184841115610cf55760405162461bcd60e51b81526004018080602001828103825283818151815260200191508051906020019080838360005b83811015610cba578181015183820152602001610ca2565b50505050905090810190601f168015610ce75780820380516001836020036101000a031916815260200191505b509250505060405180910390fd5b505050900390565b600082820183811015610a26576040805162461bcd60e51b815260206004820152601b60248201527a536166654d6174683a206164646974696f6e206f766572666c6f7760281b604482015290519081900360640190fd5b828054600181600116156101000203166002900490600052602060002090601f016020900481019282601f10610d9657805160ff1916838001178555610dc3565b82800160010185558215610dc3579182015b82811115610dc3578251825591602001919060010190610da8565b50610dcf929150610dd3565b5090565b61051491905b80821115610dcf5760008155600101610dd9565b6000610a2683836040518060400160405280601a815260200179536166654d6174683a206469766973696f6e206279207a65726f60301b815250610e85565b600082610e3b575060006105c7565b82820282848281610e4857fe5b0414610a265760405162461bcd60e51b8152600401808060200182810382526021815260200180610f116021913960400191505060405180910390fd5b60008183610ed45760405162461bcd60e51b8152602060048201818152835160248401528351909283926044909101919085019080838360008315610cba578181015183820152602001610ca2565b506000838581610ee057fe5b049594505050505056fe4f776e61626c653a206e6577206f776e657220697320746865207a65726f2061646472657373536166654d6174683a206d756c7469706c69636174696f6e206f766572666c6f774f776e61626c653a2063616c6c6572206973206e6f7420746865206f776e65728be0079c531659141344cd1fd0a4f28419497f9722a3daafe3b4186f6b6457e0a265627a7a723058209706697106b2979a232181b9600ee340b4f66fd92f43d14b4163c5c85b4ce7f264736f6c634300050a0032536166654d6174683a206d756c7469706c69636174696f6e206f766572666c6f774f776e61626c653a206e6577206f776e657220697320746865207a65726f20616464726573734f776e61626c653a2063616c6c6572206973206e6f7420746865206f776e65728be0079c531659141344cd1fd0a4f28419497f9722a3daafe3b4186f6b6457e0a265627a7a72305820286e2c349f2c01122654403ab1ffe293d845222b4f81390f63ebc8012c66bb8d64736f6c634300050a0032",
  "source": "pragma solidity ^0.5.0;\n\n// import \"openzeppelin-solidity/contracts/math/SafeMath.sol\";\nimport \"openzeppelin-solidity/contracts/ownership/Ownable.sol\";\n import \"openzeppelin-solidity/contracts/utils/Address.sol\";\n\nimport \"./AssetTokenization.sol\";\n\ncontract System is Ownable {\n  using Address for address;\n// (symbol => contractAddress )\nmapping( string => address) public tokens;\n\nAssetTokenization public _tokenization;\n\nfunction createToken(string calldata name, string calldata symbol, uint256 supply, address owner) external onlyOwner returns (bool){\n    require(tokens[symbol] == address(0), \"Token Symbol already exists\");\n     _tokenization = new AssetTokenization(name, symbol, supply, owner );\n    tokens[symbol] = address(_tokenization);\n    emit Tokenization(symbol,owner,supply,address(_tokenization));\n    return true;\n}\nfunction setDocument(bytes32 name, string calldata uri, bytes32 documentHash, string calldata tokenSymbol) external onlyOwner returns(bool){\n    require(tokens[tokenSymbol] != address(0), \"Token doesn't exists\");\n     _tokenization = AssetTokenization(tokens[tokenSymbol]);\n    _tokenization.setDocument(name,uri,documentHash);\n    emit Document(name,uri,documentHash);\n    return true;\n}\nfunction getTokenContract(string calldata tokenSymbol) external view returns(address){\n    return tokens[tokenSymbol];\n}\n\nevent Tokenization(string symbol, address indexed owner, uint256 indexed amount, address contractAddress);\nevent Document(bytes32 indexed name, string uri, bytes32 documentHash);\n}",
  "sourcePath": "/home/malik/STO-tokenization/UpgradeableSmartContract-proxy/contracts/System.sol",
  "compiler": {
    "name": "solc",
    "version": "0.5.10+commit.5a6ea5b1.Emscripten.clang"
  },
  "schemaVersion": "3.0.23",
  "updatedAt": "2020-05-23T04:25:08.703Z",
  "networkType": "ethereum",
  "devdoc": {
    "methods": {
      "isOwner()": {
        "details": "Returns true if the caller is the current owner."
      },
      "owner()": {
        "details": "Returns the address of the current owner."
      },
      "renounceOwnership()": {
        "details": "Leaves the contract without owner. It will not be possible to call `onlyOwner` functions anymore. Can only be called by the current owner.     * NOTE: Renouncing ownership will leave the contract without an owner, thereby removing any functionality that is only available to the owner."
      },
      "transferOwnership(address)": {
        "details": "Transfers ownership of the contract to a new account (`newOwner`). Can only be called by the current owner."
      }
    }
  },
  "userdoc": {
    "methods": {}
  }
}