{
  "contractName": "System",
  "abi": [
    {
      "constant": true,
      "inputs": [
        {
          "name": "",
          "type": "string"
        }
      ],
      "name": "tokens",
      "outputs": [
        {
          "name": "",
          "type": "address"
        }
      ],
      "payable": false,
      "stateMutability": "view",
      "type": "function"
    },
    {
      "constant": false,
      "inputs": [],
      "name": "renounceOwnership",
      "outputs": [],
      "payable": false,
      "stateMutability": "nonpayable",
      "type": "function"
    },
    {
      "constant": true,
      "inputs": [],
      "name": "owner",
      "outputs": [
        {
          "name": "",
          "type": "address"
        }
      ],
      "payable": false,
      "stateMutability": "view",
      "type": "function"
    },
    {
      "constant": true,
      "inputs": [],
      "name": "isOwner",
      "outputs": [
        {
          "name": "",
          "type": "bool"
        }
      ],
      "payable": false,
      "stateMutability": "view",
      "type": "function"
    },
    {
      "constant": true,
      "inputs": [],
      "name": "_tokenization",
      "outputs": [
        {
          "name": "",
          "type": "address"
        }
      ],
      "payable": false,
      "stateMutability": "view",
      "type": "function"
    },
    {
      "constant": false,
      "inputs": [
        {
          "name": "newOwner",
          "type": "address"
        }
      ],
      "name": "transferOwnership",
      "outputs": [],
      "payable": false,
      "stateMutability": "nonpayable",
      "type": "function"
    },
    {
      "anonymous": false,
      "inputs": [
        {
          "indexed": false,
          "name": "name",
          "type": "string"
        },
        {
          "indexed": false,
          "name": "symbol",
          "type": "string"
        },
        {
          "indexed": false,
          "name": "supply",
          "type": "uint256"
        },
        {
          "indexed": true,
          "name": "contractAddress",
          "type": "address"
        }
      ],
      "name": "Tokenization",
      "type": "event"
    },
    {
      "anonymous": false,
      "inputs": [
        {
          "indexed": true,
          "name": "name",
          "type": "bytes32"
        },
        {
          "indexed": false,
          "name": "uri",
          "type": "string"
        },
        {
          "indexed": false,
          "name": "documentHash",
          "type": "bytes32"
        }
      ],
      "name": "Document",
      "type": "event"
    },
    {
      "anonymous": false,
      "inputs": [
        {
          "indexed": false,
          "name": "symbol",
          "type": "string"
        },
        {
          "indexed": true,
          "name": "owner",
          "type": "address"
        },
        {
          "indexed": true,
          "name": "contractAddress",
          "type": "address"
        }
      ],
      "name": "Issued",
      "type": "event"
    },
    {
      "anonymous": false,
      "inputs": [
        {
          "indexed": true,
          "name": "previousOwner",
          "type": "address"
        },
        {
          "indexed": true,
          "name": "newOwner",
          "type": "address"
        }
      ],
      "name": "OwnershipTransferred",
      "type": "event"
    },
    {
      "constant": false,
      "inputs": [
        {
          "name": "name",
          "type": "string"
        },
        {
          "name": "symbol",
          "type": "string"
        },
        {
          "name": "supply",
          "type": "uint256"
        }
      ],
      "name": "tokenize",
      "outputs": [
        {
          "name": "",
          "type": "bool"
        }
      ],
      "payable": false,
      "stateMutability": "nonpayable",
      "type": "function"
    },
    {
      "constant": false,
      "inputs": [
        {
          "name": "symbol",
          "type": "string"
        },
        {
          "name": "owner",
          "type": "address"
        }
      ],
      "name": "issueTokens",
      "outputs": [
        {
          "name": "",
          "type": "bool"
        }
      ],
      "payable": false,
      "stateMutability": "nonpayable",
      "type": "function"
    },
    {
      "constant": false,
      "inputs": [
        {
          "name": "name",
          "type": "bytes32"
        },
        {
          "name": "uri",
          "type": "string"
        },
        {
          "name": "documentHash",
          "type": "bytes32"
        },
        {
          "name": "tokenSymbol",
          "type": "string"
        }
      ],
      "name": "setDocument",
      "outputs": [
        {
          "name": "",
          "type": "bool"
        }
      ],
      "payable": false,
      "stateMutability": "nonpayable",
      "type": "function"
    },
    {
      "constant": true,
      "inputs": [
        {
          "name": "tokenSymbol",
          "type": "string"
        }
      ],
      "name": "getTokenContract",
      "outputs": [
        {
          "name": "",
          "type": "address"
        }
      ],
      "payable": false,
      "stateMutability": "view",
      "type": "function"
    }
  ],
  "bytecode": "0x608060405260006100176001600160e01b0361006616565b600080546001600160a01b0319166001600160a01b0383169081178255604051929350917f8be0079c531659141344cd1fd0a4f28419497f9722a3daafe3b4186f6b6457e0908290a35061006a565b3390565b6121d1806100796000396000f3fe60806040523480156200001157600080fd5b50600436106200009a5760003560e01c806304c2320b146200009f5780630eda66c61462000165578063381c4fce1462000240578063715018a614620002b45780638da5cb5b14620002c05780638f32d59b14620002ca578063a2aebf5b14620002d4578063c547f4a214620003a6578063f2fde38b14620003b0578063f32975c114620003d9575b600080fd5b6200014960048036036020811015620000b757600080fd5b810190602081018135600160201b811115620000d257600080fd5b820183602082011115620000e557600080fd5b803590602001918460018302840111600160201b831117156200010757600080fd5b91908080601f01602080910402602001604051908101604052809392919081815260200183838082843760009201919091525092955062000456945050505050565b604080516001600160a01b039092168252519081900360200190f35b6200022c600480360360608110156200017d57600080fd5b810190602081018135600160201b8111156200019857600080fd5b820183602082011115620001ab57600080fd5b803590602001918460018302840111600160201b83111715620001cd57600080fd5b919390929091602081019035600160201b811115620001eb57600080fd5b820183602082011115620001fe57600080fd5b803590602001918460018302840111600160201b831117156200022057600080fd5b9193509150356200047c565b604080519115158252519081900360200190f35b62000149600480360360208110156200025857600080fd5b810190602081018135600160201b8111156200027357600080fd5b8201836020820111156200028657600080fd5b803590602001918460018302840111600160201b83111715620002a857600080fd5b509092509050620006f6565b620002be62000730565b005b62000149620007b4565b6200022c620007c3565b6200022c60048036036080811015620002ec57600080fd5b81359190810190604081016020820135600160201b8111156200030e57600080fd5b8201836020820111156200032157600080fd5b803590602001918460018302840111600160201b831117156200034357600080fd5b91939092823592604081019060200135600160201b8111156200036557600080fd5b8201836020820111156200037857600080fd5b803590602001918460018302840111600160201b831117156200039a57600080fd5b509092509050620007e9565b6200014962000a10565b620002be60048036036020811015620003c857600080fd5b50356001600160a01b031662000a1f565b6200022c60048036036040811015620003f157600080fd5b810190602081018135600160201b8111156200040c57600080fd5b8201836020820111156200041f57600080fd5b803590602001918460018302840111600160201b831117156200044157600080fd5b9193509150356001600160a01b031662000a78565b80516020818301810180516001825292820191909301209152546001600160a01b031681565b600062000488620007c3565b620004c9576040805162461bcd60e51b815260206004820181905260248201526000805160206200215d833981519152604482015290519081900360640190fd5b60006001600160a01b0316600185856040518083838082843791909101948552505060405192839003602001909220546001600160a01b03169290921491506200055a9050576040805162461bcd60e51b815260206004820152601b60248201527a546f6b656e2053796d626f6c20616c72656164792065786973747360281b604482015290519081900360640190fd5b85858585856040516200056d9062000d02565b6040810182905260608082528101859052806020810160808201888880828437600083820152601f01601f1916909101848103835286815260200190508686808284376000838201819052604051601f909201601f19169093018190039a509850909650505050505050f080158015620005eb573d6000803e3d6000fd5b50600280546001600160a01b0319166001600160a01b0392831617908190556040519116906001908690869080838380828437919091019485525050604080516020948190038501812080546001600160a01b0319166001600160a01b03978816179055600254918101889052606080825281018b90529416937f923b2bbb315aef02540dd5f555064e4506c2c5ba68ff74615edd58a207584829938b93508a9250899189918991908190810160808201888880828437600083820152601f01601f191690910184810383528681526020019050868680828437600083820152604051601f909101601f1916909201829003995090975050505050505050a250600195945050505050565b6000600183836040518083838082843791909101948552505060405192839003602001909220546001600160a01b03169250505092915050565b6200073a620007c3565b6200077b576040805162461bcd60e51b815260206004820181905260248201526000805160206200215d833981519152604482015290519081900360640190fd5b600080546040516001600160a01b03909116906000805160206200217d833981519152908390a3600080546001600160a01b0319169055565b6000546001600160a01b031690565b600080546001600160a01b0316620007da62000c6d565b6001600160a01b031614905090565b6000620007f5620007c3565b62000836576040805162461bcd60e51b815260206004820181905260248201526000805160206200215d833981519152604482015290519081900360640190fd5b60006001600160a01b0316600184846040518083838082843791909101948552505060405192839003602001909220546001600160a01b031692909214159150620008c19050576040805162461bcd60e51b8152602060048201526014602482015273546f6b656e20646f65736e27742065786973747360601b604482015290519081900360640190fd5b600183836040518083838082843791909101948552505060405192839003602001832054600280546001600160a01b0319166001600160a01b0392831617908190556283246560e11b8552600485018c8152604486018a9052606060248701908152606487018c9052919092169463010648ca94508c93508b928b928b92608401858580828437600081840152601f19601f82011690508083019250505095505050505050600060405180830381600087803b1580156200098157600080fd5b505af115801562000996573d6000803e3d6000fd5b50505050867f89730c201d2df6a4cef4e892559e63e022078b0ee939d11b6ced61fb098b282487878760405180806020018381526020018281038252858582818152602001925080828437600083820152604051601f909101601f1916909201829003965090945050505050a25060019695505050505050565b6002546001600160a01b031681565b62000a29620007c3565b62000a6a576040805162461bcd60e51b815260206004820181905260248201526000805160206200215d833981519152604482015290519081900360640190fd5b62000a758162000c71565b50565b600062000a84620007c3565b62000ac5576040805162461bcd60e51b815260206004820181905260248201526000805160206200215d833981519152604482015290519081900360640190fd5b60006001600160a01b0316600185856040518083838082843791909101948552505060405192839003602001909220546001600160a01b03169290921415915062000b559050576040805162461bcd60e51b8152602060048201526019602482015278105cdcd95d081a5cdb89dd081d1bdad95b9a5e9959081e595d603a1b604482015290519081900360640190fd5b60018484604051808383808284379190910194855250506040805193849003602001842054600280546001600160a01b0319166001600160a01b0392831617908190556371e928af60e01b8652878216600487015291519116936371e928af9350602480820193506000929182900301818387803b15801562000bd757600080fd5b505af115801562000bec573d6000803e3d6000fd5b505060025460408051602080825281018890526001600160a01b03928316945091861692507ff228cd027ebf49346ff4815695125049858db5aff2cb157f57561fd7d6beb55191889188919081908101848480828437600083820152604051601f909101601f19169092018290039550909350505050a35060019392505050565b3390565b6001600160a01b03811662000cb85760405162461bcd60e51b8152600401808060200182810382526026815260200180620021376026913960400191505060405180910390fd5b600080546040516001600160a01b03808516939216916000805160206200217d83398151915291a3600080546001600160a01b0319166001600160a01b0392909216919091179055565b6114268062000d118339019056fe60806040523480156200001157600080fd5b506040516200142638038062001426833981810160405260608110156200003757600080fd5b8101908080516401000000008111156200005057600080fd5b820160208101848111156200006457600080fd5b81516401000000008111828201871017156200007f57600080fd5b505092919060200180516401000000008111156200009c57600080fd5b82016020810184811115620000b057600080fd5b8151640100000000811182820187101715620000cb57600080fd5b505060209091015190925090506000620000ed6001600160e01b036200018c16565b600080546001600160a01b0319166001600160a01b0383169081178255604051929350917f8be0079c531659141344cd1fd0a4f28419497f9722a3daafe3b4186f6b6457e0908290a35082516200014c9060019060208601906200020d565b508151620001629060029060208501906200020d565b506200017f816003546200019160201b62000d751790919060201c565b60035550620002af915050565b335b90565b6000828201838110156200020657604080517f08c379a000000000000000000000000000000000000000000000000000000000815260206004820152601b60248201527f536166654d6174683a206164646974696f6e206f766572666c6f770000000000604482015290519081900360640190fd5b9392505050565b828054600181600116156101000203166002900490600052602060002090601f016020900481019282601f106200025057805160ff191683800117855562000280565b8280016001018555821562000280579182015b828111156200028057825182559160200191906001019062000263565b506200028e92915062000292565b5090565b6200018e91905b808211156200028e576000815560010162000299565b61116780620002bf6000396000f3fe608060405234801561001057600080fd5b50600436106100c55760003560e01c8063010648ca146100ca57806306fdde0314610141578063095ea7b3146101be57806318160ddd146101fe57806323b872dd1461021857806370a082311461024e578063715018a61461027457806371e928af1461027c5780638da5cb5b146102a25780638f32d59b146102c657806395d89b41146102ce578063a9059cbb146102d6578063b10d6b4114610302578063dd62ed3e1461039e578063f2fde38b146103cc575b600080fd5b61013f600480360360608110156100e057600080fd5b81359190810190604081016020820135600160201b81111561010157600080fd5b82018360208201111561011357600080fd5b803590602001918460018302840111600160201b8311171561013457600080fd5b9193509150356103f2565b005b6101496104b2565b6040805160208082528351818301528351919283929083019185019080838360005b8381101561018357818101518382015260200161016b565b50505050905090810190601f1680156101b05780820380516001836020036101000a031916815260200191505b509250505060405180910390f35b6101ea600480360360408110156101d457600080fd5b506001600160a01b038135169060200135610548565b604080519115158252519081900360200190f35b6102066105fe565b60408051918252519081900360200190f35b6101ea6004803603606081101561022e57600080fd5b506001600160a01b03813581169160208101359091169060400135610604565b6102066004803603602081101561026457600080fd5b50356001600160a01b0316610736565b61013f610751565b61013f6004803603602081101561029257600080fd5b50356001600160a01b03166107d0565b6102aa610927565b604080516001600160a01b039092168252519081900360200190f35b6101ea610936565b61014961095a565b6101ea600480360360408110156102ec57600080fd5b506001600160a01b0381351690602001356109b8565b61031f6004803603602081101561031857600080fd5b50356109d5565b6040518080602001838152602001828103825284818151815260200191508051906020019080838360005b8381101561036257818101518382015260200161034a565b50505050905090810190601f16801561038f5780820380516001836020036101000a031916815260200191505b50935050505060405180910390f35b610206600480360360408110156103b457600080fd5b506001600160a01b0381358116916020013516610aee565b61013f600480360360208110156103e257600080fd5b50356001600160a01b0316610b19565b6103fa610936565b610439576040805162461bcd60e51b815260206004820181905260248201526000805160206110d3833981519152604482015290519081900360640190fd5b6040805160606020601f8601819004028201810183529181018481529091829190869086908190850183828082843760009201829052509385525050506020918201849052868152600682526040902082518051919261049e92849290910190610ff3565b506020820151816001015590505050505050565b60018054604080516020601f6002600019610100878916150201909516949094049384018190048102820181019092528281526060939092909183018282801561053d5780601f106105125761010080835404028352916020019161053d565b820191906000526020600020905b81548152906001019060200180831161052057829003601f168201915b505050505090505b90565b60006001600160a01b038316610596576040805162461bcd60e51b815260206004820152600e60248201526d34b73b30b634b21039b2b73232b960911b604482015290519081900360640190fd5b3360008181526005602090815260408083206001600160a01b03881680855290835292819020869055805186815290519293927f8c5be1e5ebec7d5bd14f71427d1e84f3dd0314c0f7b2291e5b200ac8c7c3b925929181900390910190a35060015b92915050565b60035490565b6001600160a01b0383166000908152600560209081526040808320338452909152812054821115610675576040805162461bcd60e51b8152602060048201526016602482015275696e73756666696369656e7420616c6c6f77616e636560501b604482015290519081900360640190fd5b6001600160a01b038416600090815260056020908152604080832033845290915290205482116106fc576001600160a01b03841660009081526005602090815260408083203384529091529020546106d3908363ffffffff610b6c16565b6001600160a01b0385166000908152600560209081526040808320338452909152902055610721565b6001600160a01b03841660009081526005602090815260408083203384529091528120555b61072c848484610bb5565b5060019392505050565b6001600160a01b031660009081526004602052604090205490565b610759610936565b610798576040805162461bcd60e51b815260206004820181905260248201526000805160206110d3833981519152604482015290519081900360640190fd5b600080546040516001600160a01b03909116906000805160206110f3833981519152908390a3600080546001600160a01b0319169055565b6107d8610936565b610817576040805162461bcd60e51b815260206004820181905260248201526000805160206110d3833981519152604482015290519081900360640190fd5b610822600354610d4a565b610866576040805162461bcd60e51b815260206004820152601060248201526f7472616e73666572206661696c75726560801b604482015290519081900360640190fd5b6001600160a01b0381166108b4576040805162461bcd60e51b815260206004820152601060248201526f34b73b30b634b2103932b1b2b4bb32b960811b604482015290519081900360640190fd5b6003546001600160a01b0382166000908152600460205260409020546108df9163ffffffff610d7516565b6001600160a01b03821660008181526004602090815260408083209490945560035484519081529351929391926000805160206111138339815191529281900390910190a350565b6000546001600160a01b031690565b600080546001600160a01b031661094b610dcd565b6001600160a01b031614905090565b60028054604080516020601f600019610100600187161502019094168590049384018190048102820181019092528281526060939092909183018282801561053d5780601f106105125761010080835404028352916020019161053d565b60006109cc6109c5610dcd565b8484610bb5565b50600192915050565b6000818152600660205260408120546060919060026000196101006001841615020190911604610a41576040805162461bcd60e51b8152602060048201526012602482015271111bd8dd5b595b9d081b9bdd08199bdd5b9960721b604482015290519081900360640190fd5b60008381526006602090815260409182902060018082015482548551600293821615610100026000190190911692909204601f81018590048502830185019095528482529193919290918491830182828015610ade5780601f10610ab357610100808354040283529160200191610ade565b820191906000526020600020905b815481529060010190602001808311610ac157829003601f168201915b5050505050915091509150915091565b6001600160a01b03918216600090815260056020908152604080832093909416825291909152205490565b610b21610936565b610b60576040805162461bcd60e51b815260206004820181905260248201526000805160206110d3833981519152604482015290519081900360640190fd5b610b6981610dd1565b50565b6000610bae83836040518060400160405280601e81526020017f536166654d6174683a207375627472616374696f6e206f766572666c6f770000815250610e5f565b9392505050565b6001600160a01b038316610c10576040805162461bcd60e51b815260206004820152601e60248201527f7472616e736665722066726f6d20746865207a65726f20616464726573730000604482015290519081900360640190fd5b6001600160a01b038216610c6a576040805162461bcd60e51b815260206004820152601c60248201527b7472616e7366657220746f20746865207a65726f206164647265737360201b604482015290519081900360640190fd5b604080518082018252601f81527f7472616e7366657220616d6f756e7420657863656564732062616c616e6365006020808301919091526001600160a01b038616600090815260049091529190912054610ccb91839063ffffffff610e5f16565b6001600160a01b038085166000908152600460205260408082209390935590841681522054610d00908263ffffffff610d7516565b6001600160a01b03808416600081815260046020908152604091829020949094558051858152905191939287169260008051602061111383398151915292918290030190a3505050565b600081610d6e6001610d62838263ffffffff610ef616565b9063ffffffff610f3516565b1492915050565b600082820183811015610bae576040805162461bcd60e51b815260206004820152601b60248201527a536166654d6174683a206164646974696f6e206f766572666c6f7760281b604482015290519081900360640190fd5b3390565b6001600160a01b038116610e165760405162461bcd60e51b815260040180806020018281038252602681526020018061108c6026913960400191505060405180910390fd5b600080546040516001600160a01b03808516939216916000805160206110f383398151915291a3600080546001600160a01b0319166001600160a01b0392909216919091179055565b60008184841115610eee5760405162461bcd60e51b81526004018080602001828103825283818151815260200191508051906020019080838360005b83811015610eb3578181015183820152602001610e9b565b50505050905090810190601f168015610ee05780820380516001836020036101000a031916815260200191505b509250505060405180910390fd5b505050900390565b6000610bae83836040518060400160405280601a815260200179536166654d6174683a206469766973696f6e206279207a65726f60301b815250610f8e565b600082610f44575060006105f8565b82820282848281610f5157fe5b0414610bae5760405162461bcd60e51b81526004018080602001828103825260218152602001806110b26021913960400191505060405180910390fd5b60008183610fdd5760405162461bcd60e51b8152602060048201818152835160248401528351909283926044909101919085019080838360008315610eb3578181015183820152602001610e9b565b506000838581610fe957fe5b0495945050505050565b828054600181600116156101000203166002900490600052602060002090601f016020900481019282601f1061103457805160ff1916838001178555611061565b82800160010185558215611061579182015b82811115611061578251825591602001919060010190611046565b5061106d929150611071565b5090565b61054591905b8082111561106d576000815560010161107756fe4f776e61626c653a206e6577206f776e657220697320746865207a65726f2061646472657373536166654d6174683a206d756c7469706c69636174696f6e206f766572666c6f774f776e61626c653a2063616c6c6572206973206e6f7420746865206f776e65728be0079c531659141344cd1fd0a4f28419497f9722a3daafe3b4186f6b6457e0ddf252ad1be2c89b69c2b068fc378daa952ba7f163c4a11628f55a4df523b3efa265627a7a72305820a88a4aba0c6912dab42c59e4cb35cc5bb99cd09cd6f5047f7acb810c2ea8683764736f6c634300050a00324f776e61626c653a206e6577206f776e657220697320746865207a65726f20616464726573734f776e61626c653a2063616c6c6572206973206e6f7420746865206f776e65728be0079c531659141344cd1fd0a4f28419497f9722a3daafe3b4186f6b6457e0a265627a7a72305820db59d1608eaa51438361366fb0e26eaff119581c287974ff7f35af62e5b05c0864736f6c634300050a0032",
  "source": "pragma solidity ^0.5.0;\n\n// import \"openzeppelin-solidity/contracts/math/SafeMath.sol\";\nimport \"openzeppelin-solidity/contracts/ownership/Ownable.sol\";\n import \"openzeppelin-solidity/contracts/utils/Address.sol\";\n\nimport \"./AssetTokenization.sol\";\n\ncontract System is Ownable {\n  using Address for address;\n// (symbol => contractAddress )\nmapping( string => address) public tokens;\n\nAssetTokenization public _tokenization;\n\nfunction tokenize(string calldata name, string calldata symbol, uint256 supply) external onlyOwner returns (bool){\n    require(tokens[symbol] == address(0), \"Token Symbol already exists\");\n     _tokenization = new AssetTokenization(name, symbol, supply );\n    tokens[symbol] = address(_tokenization);\n    emit Tokenization(name, symbol, supply ,address(_tokenization));\n    return true;\n}\nfunction issueTokens(string calldata symbol, address owner) external onlyOwner returns (bool) {\n    require(tokens[symbol] != address(0), \"Asset isn't tokenized yet\");\n    _tokenization = AssetTokenization(tokens[symbol]);\n    _tokenization.issue(owner);\n    emit Issued(symbol, owner, address(_tokenization));\n    return true;\n}\nfunction setDocument(bytes32 name, string calldata uri, bytes32 documentHash, string calldata tokenSymbol) external onlyOwner returns(bool){\n    require(tokens[tokenSymbol] != address(0), \"Token doesn't exists\");\n     _tokenization = AssetTokenization(tokens[tokenSymbol]);\n    _tokenization.setDocument(name,uri,documentHash);\n    emit Document(name,uri,documentHash);\n    return true;\n}\nfunction getTokenContract(string calldata tokenSymbol) external view returns(address){\n    return tokens[tokenSymbol];\n}\n\nevent Tokenization(string name, string symbol, uint256 supply, address indexed contractAddress);\nevent Document(bytes32 indexed name, string uri, bytes32 documentHash);\nevent Issued(string symbol, address indexed owner, address indexed contractAddress);\n}",
  "sourcePath": "/home/malik/STO-tokenization/UpgradeableSmartContract-proxy/contracts/System.sol",
  "compiler": {
    "name": "solc",
    "version": "0.5.10+commit.5a6ea5b1.Emscripten.clang"
  },
  "schemaVersion": "3.0.23",
  "updatedAt": "2020-05-27T14:44:19.539Z",
  "networkType": "ethereum",
  "devdoc": {
    "methods": {
      "isOwner()": {
        "details": "Returns true if the caller is the current owner."
      },
      "owner()": {
        "details": "Returns the address of the current owner."
      },
      "renounceOwnership()": {
        "details": "Leaves the contract without owner. It will not be possible to call `onlyOwner` functions anymore. Can only be called by the current owner.     * NOTE: Renouncing ownership will leave the contract without an owner, thereby removing any functionality that is only available to the owner."
      },
      "transferOwnership(address)": {
        "details": "Transfers ownership of the contract to a new account (`newOwner`). Can only be called by the current owner."
      }
    }
  },
  "userdoc": {
    "methods": {}
  }
}